{"abi":[{"type":"constructor","inputs":[],"stateMutability":"nonpayable"},{"type":"function","name":"DOMAIN_SEPARATOR","inputs":[],"outputs":[{"name":"","type":"bytes32","internalType":"bytes32"}],"stateMutability":"view"},{"type":"function","name":"MINIMUM_LIQUIDITY","inputs":[],"outputs":[{"name":"","type":"uint256","internalType":"uint256"}],"stateMutability":"view"},{"type":"function","name":"PERMIT_TYPEHASH","inputs":[],"outputs":[{"name":"","type":"bytes32","internalType":"bytes32"}],"stateMutability":"view"},{"type":"function","name":"allowance","inputs":[{"name":"","type":"address","internalType":"address"},{"name":"","type":"address","internalType":"address"}],"outputs":[{"name":"","type":"uint256","internalType":"uint256"}],"stateMutability":"view"},{"type":"function","name":"approve","inputs":[{"name":"spender","type":"address","internalType":"address"},{"name":"value","type":"uint256","internalType":"uint256"}],"outputs":[{"name":"","type":"bool","internalType":"bool"}],"stateMutability":"nonpayable"},{"type":"function","name":"balanceOf","inputs":[{"name":"","type":"address","internalType":"address"}],"outputs":[{"name":"","type":"uint256","internalType":"uint256"}],"stateMutability":"view"},{"type":"function","name":"burn","inputs":[{"name":"to","type":"address","internalType":"address"}],"outputs":[{"name":"amount0","type":"uint256","internalType":"uint256"},{"name":"amount1","type":"uint256","internalType":"uint256"}],"stateMutability":"nonpayable"},{"type":"function","name":"burn","inputs":[{"name":"from","type":"address","internalType":"address"},{"name":"value","type":"uint256","internalType":"uint256"}],"outputs":[],"stateMutability":"nonpayable"},{"type":"function","name":"decimals","inputs":[],"outputs":[{"name":"","type":"uint8","internalType":"uint8"}],"stateMutability":"view"},{"type":"function","name":"factory","inputs":[],"outputs":[{"name":"","type":"address","internalType":"address"}],"stateMutability":"view"},{"type":"function","name":"getReserves","inputs":[],"outputs":[{"name":"_reserve0","type":"uint112","internalType":"uint112"},{"name":"_reserve1","type":"uint112","internalType":"uint112"},{"name":"_blockTimestampLast","type":"uint32","internalType":"uint32"}],"stateMutability":"view"},{"type":"function","name":"initialize","inputs":[{"name":"_token0","type":"address","internalType":"address"},{"name":"_token1","type":"address","internalType":"address"}],"outputs":[],"stateMutability":"nonpayable"},{"type":"function","name":"kLast","inputs":[],"outputs":[{"name":"","type":"uint256","internalType":"uint256"}],"stateMutability":"view"},{"type":"function","name":"mint","inputs":[{"name":"to","type":"address","internalType":"address"},{"name":"value","type":"uint256","internalType":"uint256"}],"outputs":[],"stateMutability":"nonpayable"},{"type":"function","name":"mint","inputs":[{"name":"to","type":"address","internalType":"address"}],"outputs":[{"name":"liquidity","type":"uint256","internalType":"uint256"}],"stateMutability":"nonpayable"},{"type":"function","name":"name","inputs":[],"outputs":[{"name":"","type":"string","internalType":"string"}],"stateMutability":"view"},{"type":"function","name":"nonces","inputs":[{"name":"","type":"address","internalType":"address"}],"outputs":[{"name":"","type":"uint256","internalType":"uint256"}],"stateMutability":"view"},{"type":"function","name":"permit","inputs":[{"name":"owner","type":"address","internalType":"address"},{"name":"spender","type":"address","internalType":"address"},{"name":"value","type":"uint256","internalType":"uint256"},{"name":"deadline","type":"uint256","internalType":"uint256"},{"name":"v","type":"uint8","internalType":"uint8"},{"name":"r","type":"bytes32","internalType":"bytes32"},{"name":"s","type":"bytes32","internalType":"bytes32"}],"outputs":[],"stateMutability":"nonpayable"},{"type":"function","name":"price0CumulativeLast","inputs":[],"outputs":[{"name":"","type":"uint256","internalType":"uint256"}],"stateMutability":"view"},{"type":"function","name":"price1CumulativeLast","inputs":[],"outputs":[{"name":"","type":"uint256","internalType":"uint256"}],"stateMutability":"view"},{"type":"function","name":"skim","inputs":[{"name":"to","type":"address","internalType":"address"}],"outputs":[],"stateMutability":"nonpayable"},{"type":"function","name":"swap","inputs":[{"name":"amount0Out","type":"uint256","internalType":"uint256"},{"name":"amount1Out","type":"uint256","internalType":"uint256"},{"name":"to","type":"address","internalType":"address"},{"name":"data","type":"bytes","internalType":"bytes"}],"outputs":[],"stateMutability":"nonpayable"},{"type":"function","name":"symbol","inputs":[],"outputs":[{"name":"","type":"string","internalType":"string"}],"stateMutability":"view"},{"type":"function","name":"sync","inputs":[],"outputs":[],"stateMutability":"nonpayable"},{"type":"function","name":"token0","inputs":[],"outputs":[{"name":"","type":"address","internalType":"address"}],"stateMutability":"view"},{"type":"function","name":"token1","inputs":[],"outputs":[{"name":"","type":"address","internalType":"address"}],"stateMutability":"view"},{"type":"function","name":"totalSupply","inputs":[],"outputs":[{"name":"","type":"uint256","internalType":"uint256"}],"stateMutability":"view"},{"type":"function","name":"transfer","inputs":[{"name":"to","type":"address","internalType":"address"},{"name":"value","type":"uint256","internalType":"uint256"}],"outputs":[{"name":"","type":"bool","internalType":"bool"}],"stateMutability":"nonpayable"},{"type":"function","name":"transferFrom","inputs":[{"name":"from","type":"address","internalType":"address"},{"name":"to","type":"address","internalType":"address"},{"name":"value","type":"uint256","internalType":"uint256"}],"outputs":[{"name":"","type":"bool","internalType":"bool"}],"stateMutability":"nonpayable"},{"type":"event","name":"Approval","inputs":[{"name":"owner","type":"address","indexed":true,"internalType":"address"},{"name":"spender","type":"address","indexed":true,"internalType":"address"},{"name":"value","type":"uint256","indexed":false,"internalType":"uint256"}],"anonymous":false},{"type":"event","name":"Burn","inputs":[{"name":"sender","type":"address","indexed":true,"internalType":"address"},{"name":"amount0","type":"uint256","indexed":false,"internalType":"uint256"},{"name":"amount1","type":"uint256","indexed":false,"internalType":"uint256"},{"name":"to","type":"address","indexed":true,"internalType":"address"}],"anonymous":false},{"type":"event","name":"Mint","inputs":[{"name":"sender","type":"address","indexed":true,"internalType":"address"},{"name":"amount0","type":"uint256","indexed":false,"internalType":"uint256"},{"name":"amount1","type":"uint256","indexed":false,"internalType":"uint256"}],"anonymous":false},{"type":"event","name":"Swap","inputs":[{"name":"sender","type":"address","indexed":true,"internalType":"address"},{"name":"amount0In","type":"uint256","indexed":false,"internalType":"uint256"},{"name":"amount1In","type":"uint256","indexed":false,"internalType":"uint256"},{"name":"amount0Out","type":"uint256","indexed":false,"internalType":"uint256"},{"name":"amount1Out","type":"uint256","indexed":false,"internalType":"uint256"},{"name":"to","type":"address","indexed":true,"internalType":"address"}],"anonymous":false},{"type":"event","name":"Sync","inputs":[{"name":"reserve0","type":"uint112","indexed":false,"internalType":"uint112"},{"name":"reserve1","type":"uint112","indexed":false,"internalType":"uint112"}],"anonymous":false},{"type":"event","name":"Transfer","inputs":[{"name":"from","type":"address","indexed":true,"internalType":"address"},{"name":"to","type":"address","indexed":true,"internalType":"address"},{"name":"value","type":"uint256","indexed":false,"internalType":"uint256"}],"anonymous":false}],"bytecode":{"object":"0x60806040526001600c55348015610014575f5ffd5b505f4690507f8b73c3c69bb8fe3d512ecc4cf759cc79239f7b179b0ffacaa9a75d522b39400f6040518060400160405280600a81526020017f556e697377617020563200000000000000000000000000000000000000000000815250805190602001206040518060400160405280600181526020017f31000000000000000000000000000000000000000000000000000000000000008152508051906020012083306040516020016100ca95949392919061019b565b60405160208183030381529060405280519060200120600381905550503360055f6101000a81548173ffffffffffffffffffffffffffffffffffffffff021916908373ffffffffffffffffffffffffffffffffffffffff1602179055506101ec565b5f819050919050565b61013e8161012c565b82525050565b5f819050919050565b61015681610144565b82525050565b5f73ffffffffffffffffffffffffffffffffffffffff82169050919050565b5f6101858261015c565b9050919050565b6101958161017b565b82525050565b5f60a0820190506101ae5f830188610135565b6101bb6020830187610135565b6101c86040830186610135565b6101d5606083018561014d565b6101e2608083018461018c565b9695505050505050565b613b49806101f95f395ff3fe608060405234801561000f575f5ffd5b50600436106101cd575f3560e01c80636a62784211610102578063a9059cbb116100a0578063d21220a71161006f578063d21220a714610536578063d505accf14610554578063dd62ed3e14610570578063fff6cae9146105a0576101cd565b8063a9059cbb146104ae578063ba9a7a56146104de578063bc25cf77146104fc578063c45a015514610518576101cd565b80637ecebe00116100dc5780637ecebe001461041357806389afcb441461044357806395d89b41146104745780639dc29fac14610492576101cd565b80636a6278421461039557806370a08231146103c55780637464fc3d146103f5576101cd565b806330adf81f1161016f57806340c10f191161014957806340c10f1914610321578063485cc9551461033d5780635909c0d5146103595780635a3d549314610377576101cd565b806330adf81f146102c7578063313ce567146102e55780633644e51514610303576101cd565b8063095ea7b3116101ab578063095ea7b31461022b5780630dfe16811461025b57806318160ddd1461027957806323b872dd14610297576101cd565b8063022c0d9f146101d157806306fdde03146101ed5780630902f1ac1461020b575b5f5ffd5b6101eb60048036038101906101e69190612a08565b6105aa565b005b6101f5610ba0565b6040516102029190612afc565b60405180910390f35b610213610bd9565b60405161022293929190612b62565b60405180910390f35b61024560048036038101906102409190612b97565b610c33565b6040516102529190612bef565b60405180910390f35b610263610c49565b6040516102709190612c17565b60405180910390f35b610281610c6e565b60405161028e9190612c3f565b60405180910390f35b6102b160048036038101906102ac9190612c58565b610c73565b6040516102be9190612bef565b60405180910390f35b6102cf610db8565b6040516102dc9190612cc0565b60405180910390f35b6102ed610dde565b6040516102fa9190612cf4565b60405180910390f35b61030b610de3565b6040516103189190612cc0565b60405180910390f35b61033b60048036038101906103369190612b97565b610de9565b005b61035760048036038101906103529190612d0d565b610df7565b005b610361610f0a565b60405161036e9190612c3f565b60405180910390f35b61037f610f10565b60405161038c9190612c3f565b60405180910390f35b6103af60048036038101906103aa9190612d4b565b610f16565b6040516103bc9190612c3f565b60405180910390f35b6103df60048036038101906103da9190612d4b565b6112bb565b6040516103ec9190612c3f565b60405180910390f35b6103fd6112d0565b60405161040a9190612c3f565b60405180910390f35b61042d60048036038101906104289190612d4b565b6112d6565b60405161043a9190612c3f565b60405180910390f35b61045d60048036038101906104589190612d4b565b6112eb565b60405161046b929190612d76565b60405180910390f35b61047c611767565b6040516104899190612afc565b60405180910390f35b6104ac60048036038101906104a79190612b97565b6117a0565b005b6104c860048036038101906104c39190612b97565b6117ae565b6040516104d59190612bef565b60405180910390f35b6104e66117c4565b6040516104f39190612c3f565b60405180910390f35b61051660048036038101906105119190612d4b565b6117ca565b005b6105206119de565b60405161052d9190612c17565b60405180910390f35b61053e611a03565b60405161054b9190612c17565b60405180910390f35b61056e60048036038101906105699190612df1565b611a28565b005b61058a60048036038101906105859190612d0d565b611c46565b6040516105979190612c3f565b60405180910390f35b6105a8611c66565b005b6001600c54146105ef576040517f08c379a00000000000000000000000000000000000000000000000000000000081526004016105e690612ed8565b60405180910390fd5b5f600c819055505f85118061060357505f84115b610642576040517f08c379a000000000000000000000000000000000000000000000000000000000815260040161063990612f66565b60405180910390fd5b5f5f61064c610bd9565b5091509150816dffffffffffffffffffffffffffff168710801561067f5750806dffffffffffffffffffffffffffff1686105b6106be576040517f08c379a00000000000000000000000000000000000000000000000000000000081526004016106b590612ff4565b60405180910390fd5b5f5f5f60065f9054906101000a900473ffffffffffffffffffffffffffffffffffffffff1690505f60075f9054906101000a900473ffffffffffffffffffffffffffffffffffffffff1690508173ffffffffffffffffffffffffffffffffffffffff168973ffffffffffffffffffffffffffffffffffffffff161415801561077257508073ffffffffffffffffffffffffffffffffffffffff168973ffffffffffffffffffffffffffffffffffffffff1614155b6107b1576040517f08c379a00000000000000000000000000000000000000000000000000000000081526004016107a89061305c565b60405180910390fd5b5f8b11156107c5576107c4828a8d611e2f565b5b5f8a11156107d9576107d8818a8c611e2f565b5b5f888890501115610853578873ffffffffffffffffffffffffffffffffffffffff166310d1e85c338d8d8c8c6040518663ffffffff1660e01b81526004016108259594939291906130c4565b5f604051808303815f87803b15801561083c575f5ffd5b505af115801561084e573d5f5f3e3d5ffd5b505050505b8173ffffffffffffffffffffffffffffffffffffffff166370a08231306040518263ffffffff1660e01b815260040161088c9190612c17565b602060405180830381865afa1580156108a7573d5f5f3e3d5ffd5b505050506040513d601f19601f820116820180604052508101906108cb9190613124565b93508073ffffffffffffffffffffffffffffffffffffffff166370a08231306040518263ffffffff1660e01b81526004016109069190612c17565b602060405180830381865afa158015610921573d5f5f3e3d5ffd5b505050506040513d601f19601f820116820180604052508101906109459190613124565b925050505f89856dffffffffffffffffffffffffffff16610966919061317c565b8311610972575f61099a565b89856dffffffffffffffffffffffffffff1661098e919061317c565b83610999919061317c565b5b90505f89856dffffffffffffffffffffffffffff166109b9919061317c565b83116109c5575f6109ed565b89856dffffffffffffffffffffffffffff166109e1919061317c565b836109ec919061317c565b5b90505f8211806109fc57505f81115b610a3b576040517f08c379a0000000000000000000000000000000000000000000000000000000008152600401610a329061321f565b60405180910390fd5b5f600383610a49919061323d565b6103e886610a57919061323d565b610a61919061317c565b90505f600383610a71919061323d565b6103e886610a7f919061323d565b610a89919061317c565b9050620f4240876dffffffffffffffffffffffffffff16896dffffffffffffffffffffffffffff16610abb919061323d565b610ac5919061323d565b8183610ad1919061323d565b1015610b12576040517f08c379a0000000000000000000000000000000000000000000000000000000008152600401610b09906132c8565b60405180910390fd5b5050610b2084848888611fb3565b8873ffffffffffffffffffffffffffffffffffffffff163373ffffffffffffffffffffffffffffffffffffffff167fd78ad95fa46c994b6551d0da85fc275fe613ce37657fb8d5e3d130840159d82284848f8f604051610b8394939291906132e6565b60405180910390a35050505050506001600c819055505050505050565b6040518060400160405280600a81526020017f556e69737761702056320000000000000000000000000000000000000000000081525081565b5f5f5f60085f9054906101000a90046dffffffffffffffffffffffffffff1692506008600e9054906101000a90046dffffffffffffffffffffffffffff1691506008601c9054906101000a900463ffffffff169050909192565b5f610c3f33848461229e565b6001905092915050565b60065f9054906101000a900473ffffffffffffffffffffffffffffffffffffffff1681565b5f5481565b5f7fffffffffffffffffffffffffffffffffffffffffffffffffffffffffffffffff60025f8673ffffffffffffffffffffffffffffffffffffffff1673ffffffffffffffffffffffffffffffffffffffff1681526020019081526020015f205f3373ffffffffffffffffffffffffffffffffffffffff1673ffffffffffffffffffffffffffffffffffffffff1681526020019081526020015f205414610da2578160025f8673ffffffffffffffffffffffffffffffffffffffff1673ffffffffffffffffffffffffffffffffffffffff1681526020019081526020015f205f3373ffffffffffffffffffffffffffffffffffffffff1673ffffffffffffffffffffffffffffffffffffffff1681526020019081526020015f205f828254610d9a919061317c565b925050819055505b610dad848484612385565b600190509392505050565b7f6e71edae12b1b97f4d1f60370fef10105fa2faae0126114a169c64845d6126c95f1b81565b601281565b60035481565b610df38282612495565b5050565b60055f9054906101000a900473ffffffffffffffffffffffffffffffffffffffff1673ffffffffffffffffffffffffffffffffffffffff163373ffffffffffffffffffffffffffffffffffffffff1614610e86576040517f08c379a0000000000000000000000000000000000000000000000000000000008152600401610e7d90613373565b60405180910390fd5b8160065f6101000a81548173ffffffffffffffffffffffffffffffffffffffff021916908373ffffffffffffffffffffffffffffffffffffffff1602179055508060075f6101000a81548173ffffffffffffffffffffffffffffffffffffffff021916908373ffffffffffffffffffffffffffffffffffffffff1602179055505050565b60095481565b600a5481565b5f6001600c5414610f5c576040517f08c379a0000000000000000000000000000000000000000000000000000000008152600401610f5390612ed8565b60405180910390fd5b5f600c819055505f5f610f6d610bd9565b50915091505f60065f9054906101000a900473ffffffffffffffffffffffffffffffffffffffff1673ffffffffffffffffffffffffffffffffffffffff166370a08231306040518263ffffffff1660e01b8152600401610fcd9190612c17565b602060405180830381865afa158015610fe8573d5f5f3e3d5ffd5b505050506040513d601f19601f8201168201806040525081019061100c9190613124565b90505f60075f9054906101000a900473ffffffffffffffffffffffffffffffffffffffff1673ffffffffffffffffffffffffffffffffffffffff166370a08231306040518263ffffffff1660e01b81526004016110699190612c17565b602060405180830381865afa158015611084573d5f5f3e3d5ffd5b505050506040513d601f19601f820116820180604052508101906110a89190613124565b90505f846dffffffffffffffffffffffffffff16836110c7919061317c565b90505f846dffffffffffffffffffffffffffff16836110e6919061317c565b90505f6110f38787612568565b90505f5f5490505f8103611135576103e86111188486611113919061323d565b612706565b611122919061317c565b98506111305f6103e8612495565b61118e565b61118b886dffffffffffffffffffffffffffff168286611155919061323d565b61115f91906133be565b886dffffffffffffffffffffffffffff16838661117c919061323d565b61118691906133be565b61277d565b98505b5f89116111d0576040517f08c379a00000000000000000000000000000000000000000000000000000000081526004016111c79061345e565b60405180910390fd5b6111da8a8a612495565b6111e686868a8a611fb3565b8115611256576008600e9054906101000a90046dffffffffffffffffffffffffffff166dffffffffffffffffffffffffffff1660085f9054906101000a90046dffffffffffffffffffffffffffff166dffffffffffffffffffffffffffff1661124f919061323d565b600b819055505b3373ffffffffffffffffffffffffffffffffffffffff167f4c209b5fc8ad50758f13e2e1088ba56a560dff690a1c6fef26394f4c03821c4f858560405161129e929190612d76565b60405180910390a250505050505050506001600c81905550919050565b6001602052805f5260405f205f915090505481565b600b5481565b6004602052805f5260405f205f915090505481565b5f5f6001600c5414611332576040517f08c379a000000000000000000000000000000000000000000000000000000000815260040161132990612ed8565b60405180910390fd5b5f600c819055505f5f611343610bd9565b50915091505f60065f9054906101000a900473ffffffffffffffffffffffffffffffffffffffff1690505f60075f9054906101000a900473ffffffffffffffffffffffffffffffffffffffff1690505f8273ffffffffffffffffffffffffffffffffffffffff166370a08231306040518263ffffffff1660e01b81526004016113cc9190612c17565b602060405180830381865afa1580156113e7573d5f5f3e3d5ffd5b505050506040513d601f19601f8201168201806040525081019061140b9190613124565b90505f8273ffffffffffffffffffffffffffffffffffffffff166370a08231306040518263ffffffff1660e01b81526004016114479190612c17565b602060405180830381865afa158015611462573d5f5f3e3d5ffd5b505050506040513d601f19601f820116820180604052508101906114869190613124565b90505f60015f3073ffffffffffffffffffffffffffffffffffffffff1673ffffffffffffffffffffffffffffffffffffffff1681526020019081526020015f205490505f6114d48888612568565b90505f5f5490508085846114e8919061323d565b6114f291906133be565b9a50808484611501919061323d565b61150b91906133be565b99505f8b11801561151b57505f8a115b61155a576040517f08c379a0000000000000000000000000000000000000000000000000000000008152600401611551906134ec565b60405180910390fd5b6115643084612795565b61156f878d8d611e2f565b61157a868d8c611e2f565b8673ffffffffffffffffffffffffffffffffffffffff166370a08231306040518263ffffffff1660e01b81526004016115b39190612c17565b602060405180830381865afa1580156115ce573d5f5f3e3d5ffd5b505050506040513d601f19601f820116820180604052508101906115f29190613124565b94508573ffffffffffffffffffffffffffffffffffffffff166370a08231306040518263ffffffff1660e01b815260040161162d9190612c17565b602060405180830381865afa158015611648573d5f5f3e3d5ffd5b505050506040513d601f19601f8201168201806040525081019061166c9190613124565b935061167a85858b8b611fb3565b81156116ea576008600e9054906101000a90046dffffffffffffffffffffffffffff166dffffffffffffffffffffffffffff1660085f9054906101000a90046dffffffffffffffffffffffffffff166dffffffffffffffffffffffffffff166116e3919061323d565b600b819055505b8b73ffffffffffffffffffffffffffffffffffffffff163373ffffffffffffffffffffffffffffffffffffffff167fdccd412f0b1252819cb1fd330b93224ca42612892bb3f4f789976e6d819364968d8d604051611749929190612d76565b60405180910390a35050505050505050506001600c81905550915091565b6040518060400160405280600681526020017f554e492d5632000000000000000000000000000000000000000000000000000081525081565b6117aa8282612795565b5050565b5f6117ba338484612385565b6001905092915050565b6103e881565b6001600c541461180f576040517f08c379a000000000000000000000000000000000000000000000000000000000815260040161180690612ed8565b60405180910390fd5b5f600c819055505f60065f9054906101000a900473ffffffffffffffffffffffffffffffffffffffff1690505f60075f9054906101000a900473ffffffffffffffffffffffffffffffffffffffff169050611918828460085f9054906101000a90046dffffffffffffffffffffffffffff166dffffffffffffffffffffffffffff168573ffffffffffffffffffffffffffffffffffffffff166370a08231306040518263ffffffff1660e01b81526004016118ca9190612c17565b602060405180830381865afa1580156118e5573d5f5f3e3d5ffd5b505050506040513d601f19601f820116820180604052508101906119099190613124565b611913919061317c565b611e2f565b6119d181846008600e9054906101000a90046dffffffffffffffffffffffffffff166dffffffffffffffffffffffffffff168473ffffffffffffffffffffffffffffffffffffffff166370a08231306040518263ffffffff1660e01b81526004016119839190612c17565b602060405180830381865afa15801561199e573d5f5f3e3d5ffd5b505050506040513d601f19601f820116820180604052508101906119c29190613124565b6119cc919061317c565b611e2f565b50506001600c8190555050565b60055f9054906101000a900473ffffffffffffffffffffffffffffffffffffffff1681565b60075f9054906101000a900473ffffffffffffffffffffffffffffffffffffffff1681565b42841015611a6b576040517f08c379a0000000000000000000000000000000000000000000000000000000008152600401611a6290613554565b60405180910390fd5b5f6003547f6e71edae12b1b97f4d1f60370fef10105fa2faae0126114a169c64845d6126c95f1b89898960045f8e73ffffffffffffffffffffffffffffffffffffffff1673ffffffffffffffffffffffffffffffffffffffff1681526020019081526020015f205f815480929190611ae290613572565b919050558a604051602001611afc969594939291906135b9565b60405160208183030381529060405280519060200120604051602001611b2392919061368c565b6040516020818303038152906040528051906020012090505f6001828686866040515f8152602001604052604051611b5e94939291906136c2565b6020604051602081039080840390855afa158015611b7e573d5f5f3e3d5ffd5b5050506020604051035190505f73ffffffffffffffffffffffffffffffffffffffff168173ffffffffffffffffffffffffffffffffffffffff1614158015611bf157508873ffffffffffffffffffffffffffffffffffffffff168173ffffffffffffffffffffffffffffffffffffffff16145b611c30576040517f08c379a0000000000000000000000000000000000000000000000000000000008152600401611c279061374f565b60405180910390fd5b611c3b89898961229e565b505050505050505050565b6002602052815f5260405f20602052805f5260405f205f91509150505481565b6001600c5414611cab576040517f08c379a0000000000000000000000000000000000000000000000000000000008152600401611ca290612ed8565b60405180910390fd5b5f600c81905550611e2560065f9054906101000a900473ffffffffffffffffffffffffffffffffffffffff1673ffffffffffffffffffffffffffffffffffffffff166370a08231306040518263ffffffff1660e01b8152600401611d0f9190612c17565b602060405180830381865afa158015611d2a573d5f5f3e3d5ffd5b505050506040513d601f19601f82011682018060405250810190611d4e9190613124565b60075f9054906101000a900473ffffffffffffffffffffffffffffffffffffffff1673ffffffffffffffffffffffffffffffffffffffff166370a08231306040518263ffffffff1660e01b8152600401611da89190612c17565b602060405180830381865afa158015611dc3573d5f5f3e3d5ffd5b505050506040513d601f19601f82011682018060405250810190611de79190613124565b60085f9054906101000a90046dffffffffffffffffffffffffffff166008600e9054906101000a90046dffffffffffffffffffffffffffff16611fb3565b6001600c81905550565b5f5f8473ffffffffffffffffffffffffffffffffffffffff166040518060400160405280601981526020017f7472616e7366657228616464726573732c75696e743235362900000000000000815250805190602001208585604051602401611e9892919061376d565b604051602081830303815290604052907bffffffffffffffffffffffffffffffffffffffffffffffffffffffff19166020820180517bffffffffffffffffffffffffffffffffffffffffffffffffffffffff8381831617835250505050604051611f0291906137d8565b5f604051808303815f865af19150503d805f8114611f3b576040519150601f19603f3d011682016040523d82523d5f602084013e611f40565b606091505b5091509150818015611f6d57505f81511480611f6c575080806020019051810190611f6b9190613818565b5b5b611fac576040517f08c379a0000000000000000000000000000000000000000000000000000000008152600401611fa39061388d565b60405180910390fd5b5050505050565b6dffffffffffffffffffffffffffff80168411158015611fe357506dffffffffffffffffffffffffffff80168311155b612022576040517f08c379a0000000000000000000000000000000000000000000000000000000008152600401612019906138f5565b60405180910390fd5b5f640100000000426120349190613913565b90505f6008601c9054906101000a900463ffffffff16826120559190613943565b90505f8163ffffffff1611801561207c57505f846dffffffffffffffffffffffffffff1614155b801561209857505f836dffffffffffffffffffffffffffff1614155b1561219c578063ffffffff166120dd856120b186612868565b7bffffffffffffffffffffffffffffffffffffffffffffffffffffffff1661289b90919063ffffffff16565b7bffffffffffffffffffffffffffffffffffffffffffffffffffffffff16612105919061323d565b60095f828254612115919061397a565b925050819055508063ffffffff1661215c8461213087612868565b7bffffffffffffffffffffffffffffffffffffffffffffffffffffffff1661289b90919063ffffffff16565b7bffffffffffffffffffffffffffffffffffffffffffffffffffffffff16612184919061323d565b600a5f828254612194919061397a565b925050819055505b8560085f6101000a8154816dffffffffffffffffffffffffffff02191690836dffffffffffffffffffffffffffff160217905550846008600e6101000a8154816dffffffffffffffffffffffffffff02191690836dffffffffffffffffffffffffffff160217905550816008601c6101000a81548163ffffffff021916908363ffffffff1602179055507f1c411e9a96e071241c2f21f7726b17ae89e3cab4c78be50e062b03a9fffbbad160085f9054906101000a90046dffffffffffffffffffffffffffff166008600e9054906101000a90046dffffffffffffffffffffffffffff1660405161228e9291906139ad565b60405180910390a1505050505050565b8060025f8573ffffffffffffffffffffffffffffffffffffffff1673ffffffffffffffffffffffffffffffffffffffff1681526020019081526020015f205f8473ffffffffffffffffffffffffffffffffffffffff1673ffffffffffffffffffffffffffffffffffffffff1681526020019081526020015f20819055508173ffffffffffffffffffffffffffffffffffffffff168373ffffffffffffffffffffffffffffffffffffffff167f8c5be1e5ebec7d5bd14f71427d1e84f3dd0314c0f7b2291e5b200ac8c7c3b925836040516123789190612c3f565b60405180910390a3505050565b8060015f8573ffffffffffffffffffffffffffffffffffffffff1673ffffffffffffffffffffffffffffffffffffffff1681526020019081526020015f205f8282546123d1919061317c565b925050819055508060015f8473ffffffffffffffffffffffffffffffffffffffff1673ffffffffffffffffffffffffffffffffffffffff1681526020019081526020015f205f828254612424919061397a565b925050819055508173ffffffffffffffffffffffffffffffffffffffff168373ffffffffffffffffffffffffffffffffffffffff167fddf252ad1be2c89b69c2b068fc378daa952ba7f163c4a11628f55a4df523b3ef836040516124889190612c3f565b60405180910390a3505050565b805f5f8282546124a5919061397a565b925050819055508060015f8473ffffffffffffffffffffffffffffffffffffffff1673ffffffffffffffffffffffffffffffffffffffff1681526020019081526020015f205f8282546124f8919061397a565b925050819055508173ffffffffffffffffffffffffffffffffffffffff165f73ffffffffffffffffffffffffffffffffffffffff167fddf252ad1be2c89b69c2b068fc378daa952ba7f163c4a11628f55a4df523b3ef8360405161255c9190612c3f565b60405180910390a35050565b5f5f60055f9054906101000a900473ffffffffffffffffffffffffffffffffffffffff1673ffffffffffffffffffffffffffffffffffffffff1663017e7e586040518163ffffffff1660e01b8152600401602060405180830381865afa1580156125d4573d5f5f3e3d5ffd5b505050506040513d601f19601f820116820180604052508101906125f891906139e8565b90505f73ffffffffffffffffffffffffffffffffffffffff168173ffffffffffffffffffffffffffffffffffffffff16141591505f600b54905082156126ee575f81146126e9575f612674856dffffffffffffffffffffffffffff16876dffffffffffffffffffffffffffff1661266f919061323d565b612706565b90505f61268083612706565b9050808211156126e6575f8183612697919061317c565b5f546126a3919061323d565b90505f826005856126b4919061323d565b6126be919061397a565b90505f81836126cd91906133be565b90505f8111156126e2576126e18782612495565b5b5050505b50505b6126fe565b5f81146126fd575f600b819055505b5b505092915050565b5f600382111561276b578190505f600160028461272391906133be565b61272d919061397a565b90505b8181101561276557809150600281828561274a91906133be565b612754919061397a565b61275e91906133be565b9050612730565b50612778565b5f821461277757600190505b5b919050565b5f81831061278b578161278d565b825b905092915050565b8060015f8473ffffffffffffffffffffffffffffffffffffffff1673ffffffffffffffffffffffffffffffffffffffff1681526020019081526020015f205f8282546127e1919061317c565b92505081905550805f5f8282546127f8919061317c565b925050819055505f73ffffffffffffffffffffffffffffffffffffffff168273ffffffffffffffffffffffffffffffffffffffff167fddf252ad1be2c89b69c2b068fc378daa952ba7f163c4a11628f55a4df523b3ef8360405161285c9190612c3f565b60405180910390a35050565b5f6e010000000000000000000000000000826dffffffffffffffffffffffffffff166128949190613a3a565b9050919050565b5f5f826dffffffffffffffffffffffffffff16116128ee576040517f08c379a00000000000000000000000000000000000000000000000000000000081526004016128e590613ac5565b60405180910390fd5b816dffffffffffffffffffffffffffff168361290a9190613ae3565b905092915050565b5f5ffd5b5f5ffd5b5f819050919050565b61292c8161291a565b8114612936575f5ffd5b50565b5f8135905061294781612923565b92915050565b5f73ffffffffffffffffffffffffffffffffffffffff82169050919050565b5f6129768261294d565b9050919050565b6129868161296c565b8114612990575f5ffd5b50565b5f813590506129a18161297d565b92915050565b5f5ffd5b5f5ffd5b5f5ffd5b5f5f83601f8401126129c8576129c76129a7565b5b8235905067ffffffffffffffff8111156129e5576129e46129ab565b5b602083019150836001820283011115612a0157612a006129af565b5b9250929050565b5f5f5f5f5f60808688031215612a2157612a20612912565b5b5f612a2e88828901612939565b9550506020612a3f88828901612939565b9450506040612a5088828901612993565b935050606086013567ffffffffffffffff811115612a7157612a70612916565b5b612a7d888289016129b3565b92509250509295509295909350565b5f81519050919050565b5f82825260208201905092915050565b8281835e5f83830152505050565b5f601f19601f8301169050919050565b5f612ace82612a8c565b612ad88185612a96565b9350612ae8818560208601612aa6565b612af181612ab4565b840191505092915050565b5f6020820190508181035f830152612b148184612ac4565b905092915050565b5f6dffffffffffffffffffffffffffff82169050919050565b612b3e81612b1c565b82525050565b5f63ffffffff82169050919050565b612b5c81612b44565b82525050565b5f606082019050612b755f830186612b35565b612b826020830185612b35565b612b8f6040830184612b53565b949350505050565b5f5f60408385031215612bad57612bac612912565b5b5f612bba85828601612993565b9250506020612bcb85828601612939565b9150509250929050565b5f8115159050919050565b612be981612bd5565b82525050565b5f602082019050612c025f830184612be0565b92915050565b612c118161296c565b82525050565b5f602082019050612c2a5f830184612c08565b92915050565b612c398161291a565b82525050565b5f602082019050612c525f830184612c30565b92915050565b5f5f5f60608486031215612c6f57612c6e612912565b5b5f612c7c86828701612993565b9350506020612c8d86828701612993565b9250506040612c9e86828701612939565b9150509250925092565b5f819050919050565b612cba81612ca8565b82525050565b5f602082019050612cd35f830184612cb1565b92915050565b5f60ff82169050919050565b612cee81612cd9565b82525050565b5f602082019050612d075f830184612ce5565b92915050565b5f5f60408385031215612d2357612d22612912565b5b5f612d3085828601612993565b9250506020612d4185828601612993565b9150509250929050565b5f60208284031215612d6057612d5f612912565b5b5f612d6d84828501612993565b91505092915050565b5f604082019050612d895f830185612c30565b612d966020830184612c30565b9392505050565b612da681612cd9565b8114612db0575f5ffd5b50565b5f81359050612dc181612d9d565b92915050565b612dd081612ca8565b8114612dda575f5ffd5b50565b5f81359050612deb81612dc7565b92915050565b5f5f5f5f5f5f5f60e0888a031215612e0c57612e0b612912565b5b5f612e198a828b01612993565b9750506020612e2a8a828b01612993565b9650506040612e3b8a828b01612939565b9550506060612e4c8a828b01612939565b9450506080612e5d8a828b01612db3565b93505060a0612e6e8a828b01612ddd565b92505060c0612e7f8a828b01612ddd565b91505092959891949750929550565b7f556e697377617056323a204c4f434b45440000000000000000000000000000005f82015250565b5f612ec2601183612a96565b9150612ecd82612e8e565b602082019050919050565b5f6020820190508181035f830152612eef81612eb6565b9050919050565b7f556e697377617056323a20494e53554646494349454e545f4f55545055545f415f8201527f4d4f554e54000000000000000000000000000000000000000000000000000000602082015250565b5f612f50602583612a96565b9150612f5b82612ef6565b604082019050919050565b5f6020820190508181035f830152612f7d81612f44565b9050919050565b7f556e697377617056323a20494e53554646494349454e545f4c495155494449545f8201527f5900000000000000000000000000000000000000000000000000000000000000602082015250565b5f612fde602183612a96565b9150612fe982612f84565b604082019050919050565b5f6020820190508181035f83015261300b81612fd2565b9050919050565b7f556e697377617056323a20494e56414c49445f544f00000000000000000000005f82015250565b5f613046601583612a96565b915061305182613012565b602082019050919050565b5f6020820190508181035f8301526130738161303a565b9050919050565b5f82825260208201905092915050565b828183375f83830152505050565b5f6130a3838561307a565b93506130b083858461308a565b6130b983612ab4565b840190509392505050565b5f6080820190506130d75f830188612c08565b6130e46020830187612c30565b6130f16040830186612c30565b8181036060830152613104818486613098565b90509695505050505050565b5f8151905061311e81612923565b92915050565b5f6020828403121561313957613138612912565b5b5f61314684828501613110565b91505092915050565b7f4e487b71000000000000000000000000000000000000000000000000000000005f52601160045260245ffd5b5f6131868261291a565b91506131918361291a565b92508282039050818111156131a9576131a861314f565b5b92915050565b7f556e697377617056323a20494e53554646494349454e545f494e5055545f414d5f8201527f4f554e5400000000000000000000000000000000000000000000000000000000602082015250565b5f613209602483612a96565b9150613214826131af565b604082019050919050565b5f6020820190508181035f830152613236816131fd565b9050919050565b5f6132478261291a565b91506132528361291a565b92508282026132608161291a565b915082820484148315176132775761327661314f565b5b5092915050565b7f556e697377617056323a204b00000000000000000000000000000000000000005f82015250565b5f6132b2600c83612a96565b91506132bd8261327e565b602082019050919050565b5f6020820190508181035f8301526132df816132a6565b9050919050565b5f6080820190506132f95f830187612c30565b6133066020830186612c30565b6133136040830185612c30565b6133206060830184612c30565b95945050505050565b7f556e697377617056323a20464f5242494444454e0000000000000000000000005f82015250565b5f61335d601483612a96565b915061336882613329565b602082019050919050565b5f6020820190508181035f83015261338a81613351565b9050919050565b7f4e487b71000000000000000000000000000000000000000000000000000000005f52601260045260245ffd5b5f6133c88261291a565b91506133d38361291a565b9250826133e3576133e2613391565b5b828204905092915050565b7f556e697377617056323a20494e53554646494349454e545f4c495155494449545f8201527f595f4d494e544544000000000000000000000000000000000000000000000000602082015250565b5f613448602883612a96565b9150613453826133ee565b604082019050919050565b5f6020820190508181035f8301526134758161343c565b9050919050565b7f556e697377617056323a20494e53554646494349454e545f4c495155494449545f8201527f595f4255524e4544000000000000000000000000000000000000000000000000602082015250565b5f6134d6602883612a96565b91506134e18261347c565b604082019050919050565b5f6020820190508181035f830152613503816134ca565b9050919050565b7f556e697377617056323a204558504952454400000000000000000000000000005f82015250565b5f61353e601283612a96565b91506135498261350a565b602082019050919050565b5f6020820190508181035f83015261356b81613532565b9050919050565b5f61357c8261291a565b91507fffffffffffffffffffffffffffffffffffffffffffffffffffffffffffffffff82036135ae576135ad61314f565b5b600182019050919050565b5f60c0820190506135cc5f830189612cb1565b6135d96020830188612c08565b6135e66040830187612c08565b6135f36060830186612c30565b6136006080830185612c30565b61360d60a0830184612c30565b979650505050505050565b5f81905092915050565b7f19010000000000000000000000000000000000000000000000000000000000005f82015250565b5f613656600283613618565b915061366182613622565b600282019050919050565b5f819050919050565b61368661368182612ca8565b61366c565b82525050565b5f6136968261364a565b91506136a28285613675565b6020820191506136b28284613675565b6020820191508190509392505050565b5f6080820190506136d55f830187612cb1565b6136e26020830186612ce5565b6136ef6040830185612cb1565b6136fc6060830184612cb1565b95945050505050565b7f556e697377617056323a20494e56414c49445f5349474e4154555245000000005f82015250565b5f613739601c83612a96565b915061374482613705565b602082019050919050565b5f6020820190508181035f8301526137668161372d565b9050919050565b5f6040820190506137805f830185612c08565b61378d6020830184612c30565b9392505050565b5f81519050919050565b5f81905092915050565b5f6137b282613794565b6137bc818561379e565b93506137cc818560208601612aa6565b80840191505092915050565b5f6137e382846137a8565b915081905092915050565b6137f781612bd5565b8114613801575f5ffd5b50565b5f81519050613812816137ee565b92915050565b5f6020828403121561382d5761382c612912565b5b5f61383a84828501613804565b91505092915050565b7f556e697377617056323a205452414e534645525f4641494c45440000000000005f82015250565b5f613877601a83612a96565b915061388282613843565b602082019050919050565b5f6020820190508181035f8301526138a48161386b565b9050919050565b7f556e697377617056323a204f564552464c4f57000000000000000000000000005f82015250565b5f6138df601383612a96565b91506138ea826138ab565b602082019050919050565b5f6020820190508181035f83015261390c816138d3565b9050919050565b5f61391d8261291a565b91506139288361291a565b92508261393857613937613391565b5b828206905092915050565b5f61394d82612b44565b915061395883612b44565b9250828203905063ffffffff8111156139745761397361314f565b5b92915050565b5f6139848261291a565b915061398f8361291a565b92508282019050808211156139a7576139a661314f565b5b92915050565b5f6040820190506139c05f830185612b35565b6139cd6020830184612b35565b9392505050565b5f815190506139e28161297d565b92915050565b5f602082840312156139fd576139fc612912565b5b5f613a0a848285016139d4565b91505092915050565b5f7bffffffffffffffffffffffffffffffffffffffffffffffffffffffff82169050919050565b5f613a4482613a13565b9150613a4f83613a13565b9250828202613a5d81613a13565b91508282048414831517613a7457613a7361314f565b5b5092915050565b7f5551313132783131323a204449565f42595f5a45524f000000000000000000005f82015250565b5f613aaf601683612a96565b9150613aba82613a7b565b602082019050919050565b5f6020820190508181035f830152613adc81613aa3565b9050919050565b5f613aed82613a13565b9150613af883613a13565b925082613b0857613b07613391565b5b82820490509291505056fea26469706673582212202733492a45e8f917c18f618d7ebe33e13ab507362330c01781b73d69009f799d64736f6c634300081c0033","linkReferences":{}},"methodIdentifiers":{"DOMAIN_SEPARATOR()":"3644e515","MINIMUM_LIQUIDITY()":"ba9a7a56","PERMIT_TYPEHASH()":"30adf81f","allowance(address,address)":"dd62ed3e","approve(address,uint256)":"095ea7b3","balanceOf(address)":"70a08231","burn(address)":"89afcb44","burn(address,uint256)":"9dc29fac","decimals()":"313ce567","factory()":"c45a0155","getReserves()":"0902f1ac","initialize(address,address)":"485cc955","kLast()":"7464fc3d","mint(address)":"6a627842","mint(address,uint256)":"40c10f19","name()":"06fdde03","nonces(address)":"7ecebe00","permit(address,address,uint256,uint256,uint8,bytes32,bytes32)":"d505accf","price0CumulativeLast()":"5909c0d5","price1CumulativeLast()":"5a3d5493","skim(address)":"bc25cf77","swap(uint256,uint256,address,bytes)":"022c0d9f","symbol()":"95d89b41","sync()":"fff6cae9","token0()":"0dfe1681","token1()":"d21220a7","totalSupply()":"18160ddd","transfer(address,uint256)":"a9059cbb","transferFrom(address,address,uint256)":"23b872dd"},"id":20}